:100000000C942A000C948E000C948E000C948E009C
:100010000C948E000C948E000C948E000C948E0028
:100020000C948E000C948E000C948E000C948E0018
:100030000C948E000C948E000C948E000C948E0008
:100040000C948E000C948E000C948E000C948E00F8
:100050000C948E0011241FBECFE5D8E0DEBFCDBFCB
:0C0060000E9436000C943400F894FFCF8E
:10006C000E9480000E9490000E9492000E948500D5
:10007C000E948A00892B19F00E94940002C00E94F1
:10008C009E000E947400892B19F00E94960002C0F9
:10009C000E94A0000E947A00892B19F00E949800FF
:1000AC0002C00E94A2000E948A00892B39F00E9493
:1000BC007400892B19F00E949C0002C00E94A600BB
:1000CC000E947400892B39F00E947A00892B19F058
:0C00DC000E949A00CDCF0E94A400CACF61
:0C00E80080B386FB882780F990E0089523
:0C00F40080B382FB882780F990E008951B
:0A01000084B3846884BB8B9A0895D1
:0A010A00B89881B38B7B81BB089588
:0801140086B3817090E00895AC
:04011C000C9400003F
:04012000D29A0895D2
:04012400D39A0895CD
:04012800AA9A0895F2
:04012C00AF9A0895E9
:04013000939A089501
:04013400DA9A0895B6
:04013800DB9A0895B1
:04013C00AA980895E0
:04014000AF980895D7
:0401440093980895EF
:04014800DA980895A4
:04014C00DB9808959F
:00000001FF
