:100000000C943E000C94D3020C94D3020C94D302B3
:100010000C94D3020C94D3020C94D3020C94D3020C
:100020000C94D3020C94D3020C9468000C94FB0043
:100030000C94D3020C94D3020C94D3020C94D302EC
:100040000C94D3020C94D3020C94D3020C94D302DC
:100050000C94D3020060006280006200648000643F
:1000600000668000660068800068006A80006A00A0
:100070006C80006C006E80006E00708011241FBECA
:10008000CFE5D8E0DEBFCDBFE4E5F0E040E017C04B
:10009000B591A59135912591059107FD0CC09591DC
:1000A0008591EF01F92FE82F05900D92A217B30764
:1000B000D9F7FE0104C01D92A217B307E1F7EC3790
:1000C000F40731F70E9459020C946600F894FFCFB0
:1000D0001F920F920FB60F9211242F933F934F93BD
:1000E0005F936F937F938F939F93AF93BF93EF93A0
:1000F000FF93CF93DF9300D0CDB7DEB78AE390E0D4
:100100009A8389838091660090916700019690930D
:100110006700809366008D37910509F057C0809184
:1001200064009091650001968C33910529F09093BD
:100130006500809364000DC0109265001092640009
:100140008091620090916300019690936300809388
:1001500062008091620090916300CC9769F41092E4
:10016000630010926200809160009091610001969E
:100170009093610080936000809160009091610095
:100180000C9721F410926100109260000E9481028D
:1001900080916000909161000E942202CE01019640
:1001A0000E94A10280916200909163000E9422024D
:1001B000CE0101960E94A102809164009091650099
:1001C0000E94220210926700109266000F900F901A
:1001D000DF91CF91FF91EF91BF91AF919F918F915F
:1001E0007F916F915F914F913F912F910F900FBE33
:0601F0000F901F9018950E
:1001F6001F920F920FB60F9211242F933F934F9396
:100206005F936F937F938F939F93AF93BF93EF9378
:10021600FF93CF93DF9300D0CDB7DEB78AE390E0AC
:100226009A83898380916E0090916F0001969093D6
:100236006F0080936E00CD9709F057C080916C00D7
:1002460090916D0001968C33910529F090936D0085
:1002560080936C000DC010926D0010926C0080911E
:100266006A0090916B00019690936B0080936A00F0
:1002760080916A0090916B00CC9769F410926B00A4
:1002860010926A008091680090916900019690939F
:1002960069008093680080916800909169000C97CE
:1002A60021F410926900109268000E9481028091E8
:1002B6006800909169000E942202CE0101960E9478
:1002C600A10280916A0090916B000E942202CE01E9
:1002D60001960E94A10280916C0090916D000E948F
:1002E600220210926F0010926E000F900F90DF9115
:1002F600CF91FF91EF91BF91AF919F918F917F9198
:100306006F915F914F913F912F910F900FBE0F907C
:040316001F90189587
:10031A0027B32E6027BBC2980497E1F48AB3806F93
:10032A008ABB80E20E94B0028FE99FE00197F1F751
:10033A0000C0000081E00E94CA018CE00E94CA014C
:10034A009FEF21EE84E0915020408040E1F700C009
:10035A00000008958FEF8ABB88E30E94B0028FE9FC
:10036A009FE00197F1F700C0000081E00E94B0020F
:10037A008CE00E94B0029FEF21EE84E09150204071
:0A038A008040E1F700C00000089574
:10039400C1989BB39F709BBB9BB3282F207F922B4C
:1003A4009BBBC39A35E03A95F1F70000C398EFE19F
:1003B400F3E03197F1F700C000009BB39F709BBB43
:1003C4002BB3F0E18F9FC0011124822B8BBBC39A06
:1003D40035E03A95F1F70000C3988FE39FE1019768
:0803E400F1F700C000000895CC
:1003EC00C19A9BB39F709BBB9BB3282F207F922BF2
:1003FC009BBBC39A35E03A95F1F70000C398EFE147
:10040C00F3E03197F1F700C000009BB39F709BBBEA
:10041C002BB3F0E18F9FC0011124822B8BBBC39AAD
:10042C0035E03A95F1F70000C3988FE39FE101970F
:08043C00F1F700C00000089573
:10044400CF93DF93CDB7DEB728970FB6F894DEBF0E
:100454000FBECDBF4AE0BE016F5F7F4F0E94BE0258
:10046400CE0101960E94A10228960FB6F894DEBF31
:0A0474000FBECDBFDF91CF910895B8
:10047E00BB27FB015527AA27880F991FAA1FA41770
:10048E0010F0A41B83955051B9F7A05DAA3308F064
:10049E00A95DA193009779F7B111B1931192CB0198
:0404AE000C94910217
:1004B2008FEF84BB84E090E00E948D018DE70E9463
:1004C200D50265E070E081E090E00E946E0281E07A
:0A04D20090E00E94C9027894FFCF69
:1004DC0023B7277B23BF23B7287F23BF23B7880FDE
:1004EC00991F880F991F880F991F822B83BF83B781
:0604FC00682B63BF0895A8
:100502008FE99FE00197F1F700C0000081E00E94AF
:10051200CA018FE99FE00197F1F700C0000008953A
:10052200DC01FC01672F71917723E1F7329704C058
:100532007C916D9370836291AE17BF07C8F30895E3
:10054200CF93DF93EC018881882331F021960E94BA
:0E055200F60189918111FBCFDF91CF910895C1
:10056000C1988BBBC39A2FEF81EE94E0215080405D
:0C0570009040E1F700C00000C39808951F
:10057C00BB274A3031F4992322F4BDE29095819542
:06058C009F4F0C94400299
:10059200892B21F089B7826089BF089589B78D7F41
:0405A20089BF089570
:0405A6000C940000B1
:0405AA008CBF089565
:00000001FF
